{
  "contractName": "OilSuppliess",
  "abi": [
    {
      "inputs": [
        {
          "internalType": "address",
          "name": "",
          "type": "address"
        }
      ],
      "name": "hasBuyer",
      "outputs": [
        {
          "internalType": "bool",
          "name": "",
          "type": "bool"
        }
      ],
      "stateMutability": "view",
      "type": "function"
    },
    {
      "inputs": [
        {
          "internalType": "uint256",
          "name": "",
          "type": "uint256"
        }
      ],
      "name": "suppliers",
      "outputs": [
        {
          "internalType": "string",
          "name": "name",
          "type": "string"
        },
        {
          "internalType": "uint256",
          "name": "buyerCount",
          "type": "uint256"
        }
      ],
      "stateMutability": "view",
      "type": "function"
    },
    {
      "inputs": [
        {
          "internalType": "string",
          "name": "name",
          "type": "string"
        }
      ],
      "name": "addSupplier",
      "outputs": [],
      "stateMutability": "nonpayable",
      "type": "function"
    },
    {
      "inputs": [
        {
          "internalType": "uint256",
          "name": "supplierId",
          "type": "uint256"
        }
      ],
      "name": "oilContractIssued",
      "outputs": [],
      "stateMutability": "nonpayable",
      "type": "function"
    },
    {
      "inputs": [
        {
          "internalType": "uint256",
          "name": "supplierId",
          "type": "uint256"
        }
      ],
      "name": "getSupplier",
      "outputs": [
        {
          "internalType": "string",
          "name": "",
          "type": "string"
        },
        {
          "internalType": "uint256",
          "name": "",
          "type": "uint256"
        }
      ],
      "stateMutability": "view",
      "type": "function"
    }
  ],
  "bytecode": "0x608060405234801561001057600080fd5b50610cfe806100206000396000f3fe608060405234801561001057600080fd5b50600436106100575760003560e01c806315533a271461005c578063a9edc15a14610078578063cea2312114610094578063e0620e1d146100c5578063e866873d146100f6575b600080fd5b6100766004803603810190610071919061061b565b610126565b005b610092600480360381019061008d919061069a565b61018c565b005b6100ae60048036038101906100a9919061069a565b610302565b6040516100bc929190610755565b60405180910390f35b6100df60048036038101906100da919061069a565b6103be565b6040516100ed929190610755565b60405180910390f35b610110600480360381019061010b91906107e3565b6104a1565b60405161011d919061082b565b60405180910390f35b6000604051806040016040528083815260200160008152509080600181540180825580915050600190039060005260206000209060020201600090919091909150600082015181600001908161017c9190610a52565b5060208201518160010155505050565b600160003373ffffffffffffffffffffffffffffffffffffffff1673ffffffffffffffffffffffffffffffffffffffff16815260200190815260200160002060009054906101000a900460ff1615610219576040517f08c379a000000000000000000000000000000000000000000000000000000000815260040161021090610b96565b60405180910390fd5b6000811015801561022e575060008054905081105b61026d576040517f08c379a000000000000000000000000000000000000000000000000000000000815260040161026490610c02565b60405180910390fd5b6000818154811061028157610280610c22565b5b906000526020600020906002020160010160008154809291906102a390610c80565b919050555060018060003373ffffffffffffffffffffffffffffffffffffffff1673ffffffffffffffffffffffffffffffffffffffff16815260200190815260200160002060006101000a81548160ff02191690831515021790555050565b6000818154811061031257600080fd5b906000526020600020906002020160009150905080600001805461033590610875565b80601f016020809104026020016040519081016040528092919081815260200182805461036190610875565b80156103ae5780601f10610383576101008083540402835291602001916103ae565b820191906000526020600020905b81548152906001019060200180831161039157829003601f168201915b5050505050908060010154905082565b606060008083815481106103d5576103d4610c22565b5b9060005260206000209060020201600001600084815481106103fa576103f9610c22565b5b90600052602060002090600202016001015481805461041890610875565b80601f016020809104026020016040519081016040528092919081815260200182805461044490610875565b80156104915780601f1061046657610100808354040283529160200191610491565b820191906000526020600020905b81548152906001019060200180831161047457829003601f168201915b5050505050915091509150915091565b60016020528060005260406000206000915054906101000a900460ff1681565b6000604051905090565b600080fd5b600080fd5b600080fd5b600080fd5b6000601f19601f8301169050919050565b7f4e487b7100000000000000000000000000000000000000000000000000000000600052604160045260246000fd5b610528826104df565b810181811067ffffffffffffffff82111715610547576105466104f0565b5b80604052505050565b600061055a6104c1565b9050610566828261051f565b919050565b600067ffffffffffffffff821115610586576105856104f0565b5b61058f826104df565b9050602081019050919050565b82818337600083830152505050565b60006105be6105b98461056b565b610550565b9050828152602081018484840111156105da576105d96104da565b5b6105e584828561059c565b509392505050565b600082601f830112610602576106016104d5565b5b81356106128482602086016105ab565b91505092915050565b600060208284031215610631576106306104cb565b5b600082013567ffffffffffffffff81111561064f5761064e6104d0565b5b61065b848285016105ed565b91505092915050565b6000819050919050565b61067781610664565b811461068257600080fd5b50565b6000813590506106948161066e565b92915050565b6000602082840312156106b0576106af6104cb565b5b60006106be84828501610685565b91505092915050565b600081519050919050565b600082825260208201905092915050565b60005b838110156107015780820151818401526020810190506106e6565b60008484015250505050565b6000610718826106c7565b61072281856106d2565b93506107328185602086016106e3565b61073b816104df565b840191505092915050565b61074f81610664565b82525050565b6000604082019050818103600083015261076f818561070d565b905061077e6020830184610746565b9392505050565b600073ffffffffffffffffffffffffffffffffffffffff82169050919050565b60006107b082610785565b9050919050565b6107c0816107a5565b81146107cb57600080fd5b50565b6000813590506107dd816107b7565b92915050565b6000602082840312156107f9576107f86104cb565b5b6000610807848285016107ce565b91505092915050565b60008115159050919050565b61082581610810565b82525050565b6000602082019050610840600083018461081c565b92915050565b7f4e487b7100000000000000000000000000000000000000000000000000000000600052602260045260246000fd5b6000600282049050600182168061088d57607f821691505b6020821081036108a05761089f610846565b5b50919050565b60008190508160005260206000209050919050565b60006020601f8301049050919050565b600082821b905092915050565b6000600883026109087fffffffffffffffffffffffffffffffffffffffffffffffffffffffffffffffff826108cb565b61091286836108cb565b95508019841693508086168417925050509392505050565b6000819050919050565b600061094f61094a61094584610664565b61092a565b610664565b9050919050565b6000819050919050565b61096983610934565b61097d61097582610956565b8484546108d8565b825550505050565b600090565b610992610985565b61099d818484610960565b505050565b5b818110156109c1576109b660008261098a565b6001810190506109a3565b5050565b601f821115610a06576109d7816108a6565b6109e0846108bb565b810160208510156109ef578190505b610a036109fb856108bb565b8301826109a2565b50505b505050565b600082821c905092915050565b6000610a2960001984600802610a0b565b1980831691505092915050565b6000610a428383610a18565b9150826002028217905092915050565b610a5b826106c7565b67ffffffffffffffff811115610a7457610a736104f0565b5b610a7e8254610875565b610a898282856109c5565b600060209050601f831160018114610abc5760008415610aaa578287015190505b610ab48582610a36565b865550610b1c565b601f198416610aca866108a6565b60005b82811015610af257848901518255600182019150602085019450602081019050610acd565b86831015610b0f5784890151610b0b601f891682610a18565b8355505b6001600288020188555050505b505050505050565b7f596f75206861766520616c726561647920697373756564206f696c20636f6e7460008201527f72616374207769746820737570706c6965720000000000000000000000000000602082015250565b6000610b806032836106d2565b9150610b8b82610b24565b604082019050919050565b60006020820190508181036000830152610baf81610b73565b9050919050565b7f496e76616c6964204f696c537570706c69657249440000000000000000000000600082015250565b6000610bec6015836106d2565b9150610bf782610bb6565b602082019050919050565b60006020820190508181036000830152610c1b81610bdf565b9050919050565b7f4e487b7100000000000000000000000000000000000000000000000000000000600052603260045260246000fd5b7f4e487b7100000000000000000000000000000000000000000000000000000000600052601160045260246000fd5b6000610c8b82610664565b91507fffffffffffffffffffffffffffffffffffffffffffffffffffffffffffffffff8203610cbd57610cbc610c51565b5b60018201905091905056fea264697066735822122086c83ec8828e5fcb78c61c13333a43375270f778752db3eaf3afffa27b81aa1964736f6c63430008130033",
  "immutableReferences": {},
  "source": "// SPDX-License-Identifier: MIT\r\npragma solidity ^0.8.0;\r\n\r\ncontract OilSuppliess {\r\n    // Structure to store  information\r\n    struct Supplier {\r\n        string name;\r\n        uint buyerCount;\r\n    }\r\n\r\n    // Array of suppliers\r\n    Supplier [] public suppliers;\r\n\r\n    // Mapping to keep track of whether an address has already supplied\r\n    mapping(address => bool) public hasBuyer;\r\n\r\n    // Function to add a new OilSupplier\r\n    function addSupplier(string memory name) public {\r\n        suppliers.push(Supplier(name, 0));\r\n    }\r\n\r\n    // Function to issue an oil contract to an oil supplier\r\n    function oilContractIssued(uint supplierId) public {\r\n        // Check that the sender has not already issuedcontract\r\n        require(!hasBuyer[msg.sender], \"You have already issued oil contract with supplier\");\r\n\r\n        // Check that the supplier ID is valid\r\n        require(supplierId >= 0 && supplierId < suppliers.length, \"Invalid OilSupplierID\");\r\n\r\n        // Increment the buyers count and mark the sender as having contract with supplier\r\n        suppliers[supplierId].buyerCount++;\r\n        hasBuyer[msg.sender] = true;\r\n    }\r\n\r\n    // Function to get the name and count of a buyer\r\n    function getSupplier(uint supplierId) public view returns (string memory, uint) {\r\n        return (suppliers[supplierId].name, suppliers[supplierId].buyerCount);\r\n    }\r\n}\r\n",
  "sourcePath": "C:\\Users\\panna\\OneDrive\\Desktop\\BCProj4\\contracts\\SmartContract.sol",
  "compiler": {
    "name": "solc",
    "version": "0.8.19+commit.7dd6d404.Emscripten.clang"
  },
  "schemaVersion": "3.4.13",
  "updatedAt": "2023-05-02T11:49:16.680Z",
  "devdoc": {
    "kind": "dev",
    "methods": {},
    "version": 1
  },
  "userdoc": {
    "kind": "user",
    "methods": {},
    "version": 1
  }
}